{
  "_format": "hh-sol-artifact-1",
  "contractName": "Crowdfunding",
  "sourceName": "contracts/Crowdfunding.sol",
  "abi": [
    {
      "anonymous": false,
      "inputs": [
        {
          "indexed": true,
          "internalType": "uint256",
          "name": "campaignId",
          "type": "uint256"
        },
        {
          "indexed": true,
          "internalType": "address",
          "name": "creator",
          "type": "address"
        },
        {
          "indexed": false,
          "internalType": "string",
          "name": "title",
          "type": "string"
        },
        {
          "indexed": false,
          "internalType": "string",
          "name": "description",
          "type": "string"
        },
        {
          "indexed": false,
          "internalType": "string",
          "name": "imageCID",
          "type": "string"
        },
        {
          "indexed": false,
          "internalType": "uint256",
          "name": "goal",
          "type": "uint256"
        },
        {
          "indexed": false,
          "internalType": "uint256",
          "name": "deadline",
          "type": "uint256"
        }
      ],
      "name": "CampaignCreated",
      "type": "event"
    },
    {
      "anonymous": false,
      "inputs": [
        {
          "indexed": true,
          "internalType": "uint256",
          "name": "campaignId",
          "type": "uint256"
        },
        {
          "indexed": true,
          "internalType": "address",
          "name": "donor",
          "type": "address"
        },
        {
          "indexed": false,
          "internalType": "uint256",
          "name": "amount",
          "type": "uint256"
        }
      ],
      "name": "Funded",
      "type": "event"
    },
    {
      "anonymous": false,
      "inputs": [
        {
          "indexed": true,
          "internalType": "uint256",
          "name": "campaignId",
          "type": "uint256"
        },
        {
          "indexed": true,
          "internalType": "address",
          "name": "creator",
          "type": "address"
        },
        {
          "indexed": false,
          "internalType": "uint256",
          "name": "amount",
          "type": "uint256"
        }
      ],
      "name": "FundsWithdrawn",
      "type": "event"
    },
    {
      "anonymous": false,
      "inputs": [
        {
          "indexed": true,
          "internalType": "uint256",
          "name": "campaignId",
          "type": "uint256"
        },
        {
          "indexed": false,
          "internalType": "uint256",
          "name": "totalFunds",
          "type": "uint256"
        }
      ],
      "name": "GoalReached",
      "type": "event"
    },
    {
      "anonymous": false,
      "inputs": [
        {
          "indexed": true,
          "internalType": "uint256",
          "name": "campaignId",
          "type": "uint256"
        },
        {
          "indexed": true,
          "internalType": "address",
          "name": "donor",
          "type": "address"
        },
        {
          "indexed": false,
          "internalType": "uint256",
          "name": "amount",
          "type": "uint256"
        }
      ],
      "name": "Refunded",
      "type": "event"
    },
    {
      "inputs": [],
      "name": "campaignCount",
      "outputs": [
        {
          "internalType": "uint256",
          "name": "",
          "type": "uint256"
        }
      ],
      "stateMutability": "view",
      "type": "function"
    },
    {
      "inputs": [
        {
          "internalType": "uint256",
          "name": "",
          "type": "uint256"
        }
      ],
      "name": "campaigns",
      "outputs": [
        {
          "internalType": "address payable",
          "name": "creator",
          "type": "address"
        },
        {
          "internalType": "uint256",
          "name": "id",
          "type": "uint256"
        },
        {
          "internalType": "string",
          "name": "title",
          "type": "string"
        },
        {
          "internalType": "string",
          "name": "description",
          "type": "string"
        },
        {
          "internalType": "string",
          "name": "imageCID",
          "type": "string"
        },
        {
          "internalType": "uint256",
          "name": "goal",
          "type": "uint256"
        },
        {
          "internalType": "uint256",
          "name": "deadline",
          "type": "uint256"
        },
        {
          "internalType": "uint256",
          "name": "totalFunds",
          "type": "uint256"
        },
        {
          "internalType": "bool",
          "name": "goalReached",
          "type": "bool"
        },
        {
          "internalType": "bool",
          "name": "fundsWithdrawn",
          "type": "bool"
        }
      ],
      "stateMutability": "view",
      "type": "function"
    },
    {
      "inputs": [
        {
          "internalType": "uint256",
          "name": "campaignId",
          "type": "uint256"
        }
      ],
      "name": "contribute",
      "outputs": [],
      "stateMutability": "payable",
      "type": "function"
    },
    {
      "inputs": [
        {
          "internalType": "uint256",
          "name": "",
          "type": "uint256"
        },
        {
          "internalType": "address",
          "name": "",
          "type": "address"
        }
      ],
      "name": "contributions",
      "outputs": [
        {
          "internalType": "uint256",
          "name": "",
          "type": "uint256"
        }
      ],
      "stateMutability": "view",
      "type": "function"
    },
    {
      "inputs": [
        {
          "internalType": "string",
          "name": "title",
          "type": "string"
        },
        {
          "internalType": "string",
          "name": "description",
          "type": "string"
        },
        {
          "internalType": "string",
          "name": "imageCID",
          "type": "string"
        },
        {
          "internalType": "uint256",
          "name": "goal",
          "type": "uint256"
        },
        {
          "internalType": "uint256",
          "name": "duration",
          "type": "uint256"
        }
      ],
      "name": "createCampaign",
      "outputs": [],
      "stateMutability": "nonpayable",
      "type": "function"
    },
    {
      "inputs": [],
      "name": "getAllCampaigns",
      "outputs": [
        {
          "components": [
            {
              "internalType": "address payable",
              "name": "creator",
              "type": "address"
            },
            {
              "internalType": "uint256",
              "name": "id",
              "type": "uint256"
            },
            {
              "internalType": "string",
              "name": "title",
              "type": "string"
            },
            {
              "internalType": "string",
              "name": "description",
              "type": "string"
            },
            {
              "internalType": "string",
              "name": "imageCID",
              "type": "string"
            },
            {
              "internalType": "uint256",
              "name": "goal",
              "type": "uint256"
            },
            {
              "internalType": "uint256",
              "name": "deadline",
              "type": "uint256"
            },
            {
              "internalType": "uint256",
              "name": "totalFunds",
              "type": "uint256"
            },
            {
              "internalType": "bool",
              "name": "goalReached",
              "type": "bool"
            },
            {
              "internalType": "bool",
              "name": "fundsWithdrawn",
              "type": "bool"
            }
          ],
          "internalType": "struct Crowdfunding.Campaign[]",
          "name": "",
          "type": "tuple[]"
        }
      ],
      "stateMutability": "view",
      "type": "function"
    },
    {
      "inputs": [
        {
          "internalType": "uint256",
          "name": "campaignId",
          "type": "uint256"
        }
      ],
      "name": "refund",
      "outputs": [],
      "stateMutability": "nonpayable",
      "type": "function"
    },
    {
      "inputs": [
        {
          "internalType": "uint256",
          "name": "campaignId",
          "type": "uint256"
        }
      ],
      "name": "withdrawFunds",
      "outputs": [],
      "stateMutability": "nonpayable",
      "type": "function"
    }
  ],
  "bytecode": "0x608060405234801561001057600080fd5b5061218f806100206000396000f3fe60806040526004361061007b5760003560e01c80637274e30d1161004e5780637274e30d1461015557806386cdf60414610180578063980f2e66146101ab578063c1cbbca7146101d45761007b565b8063141961bc14610080578063155dd5ee146100c6578063278ecde1146100ef5780633d891f5914610118575b600080fd5b34801561008c57600080fd5b506100a760048036038101906100a291906111a2565b6101f0565b6040516100bd9a999897969594939291906112ca565b60405180910390f35b3480156100d257600080fd5b506100ed60048036038101906100e891906111a2565b610416565b005b3480156100fb57600080fd5b50610116600480360381019061011191906111a2565b6106b4565b005b34801561012457600080fd5b5061013f600480360381019061013a91906113b9565b610901565b60405161014c91906113f9565b60405180910390f35b34801561016157600080fd5b5061016a610926565b60405161017791906113f9565b60405180910390f35b34801561018c57600080fd5b5061019561092c565b6040516101a29190611635565b60405180910390f35b3480156101b757600080fd5b506101d260048036038101906101cd919061178c565b610c65565b005b6101ee60048036038101906101e991906111a2565b610edc565b005b60016020528060005260406000206000915090508060000160009054906101000a900473ffffffffffffffffffffffffffffffffffffffff169080600101549080600201805461023f9061188a565b80601f016020809104026020016040519081016040528092919081815260200182805461026b9061188a565b80156102b85780601f1061028d576101008083540402835291602001916102b8565b820191906000526020600020905b81548152906001019060200180831161029b57829003601f168201915b5050505050908060030180546102cd9061188a565b80601f01602080910402602001604051908101604052809291908181526020018280546102f99061188a565b80156103465780601f1061031b57610100808354040283529160200191610346565b820191906000526020600020905b81548152906001019060200180831161032957829003601f168201915b50505050509080600401805461035b9061188a565b80601f01602080910402602001604051908101604052809291908181526020018280546103879061188a565b80156103d45780601f106103a9576101008083540402835291602001916103d4565b820191906000526020600020905b8154815290600101906020018083116103b757829003601f168201915b5050505050908060050154908060060154908060070154908060080160009054906101000a900460ff16908060080160019054906101000a900460ff1690508a565b803373ffffffffffffffffffffffffffffffffffffffff166001600083815260200190815260200160002060000160009054906101000a900473ffffffffffffffffffffffffffffffffffffffff1673ffffffffffffffffffffffffffffffffffffffff16146104bb576040517f08c379a00000000000000000000000000000000000000000000000000000000081526004016104b29061192d565b60405180910390fd5b816001600082815260200190815260200160002060060154421015610515576040517f08c379a000000000000000000000000000000000000000000000000000000000815260040161050c90611999565b60405180910390fd5b60006001600085815260200190815260200160002090508060080160009054906101000a900460ff1661057d576040517f08c379a000000000000000000000000000000000000000000000000000000000815260040161057490611a05565b60405180910390fd5b8060080160019054906101000a900460ff16156105cf576040517f08c379a00000000000000000000000000000000000000000000000000000000081526004016105c690611a71565b60405180910390fd5b60018160080160016101000a81548160ff0219169083151502179055508060000160009054906101000a900473ffffffffffffffffffffffffffffffffffffffff1673ffffffffffffffffffffffffffffffffffffffff166108fc82600701549081150290604051600060405180830381858888f1935050505015801561065a573d6000803e3d6000fd5b503373ffffffffffffffffffffffffffffffffffffffff16847ff440aec6b52895984d061d622e6edeba6210f7c3e059be920663140c084560d783600701546040516106a691906113f9565b60405180910390a350505050565b80600160008281526020019081526020016000206006015442101561070e576040517f08c379a000000000000000000000000000000000000000000000000000000000815260040161070590611999565b60405180910390fd5b60006001600084815260200190815260200160002090508060080160009054906101000a900460ff1615610777576040517f08c379a000000000000000000000000000000000000000000000000000000000815260040161076e90611b03565b60405180910390fd5b60006002600085815260200190815260200160002060003373ffffffffffffffffffffffffffffffffffffffff1673ffffffffffffffffffffffffffffffffffffffff1681526020019081526020016000205490506000811161080f576040517f08c379a000000000000000000000000000000000000000000000000000000000815260040161080690611b6f565b60405180910390fd5b60006002600086815260200190815260200160002060003373ffffffffffffffffffffffffffffffffffffffff1673ffffffffffffffffffffffffffffffffffffffff168152602001908152602001600020819055503373ffffffffffffffffffffffffffffffffffffffff166108fc829081150290604051600060405180830381858888f193505050501580156108ab573d6000803e3d6000fd5b503373ffffffffffffffffffffffffffffffffffffffff16847f7ca5472b7ea78c2c0141c5a12ee6d170cf4ce8ed06be3d22c8252ddfc7a6a2c4836040516108f391906113f9565b60405180910390a350505050565b6002602052816000526040600020602052806000526040600020600091509150505481565b60005481565b60606000805467ffffffffffffffff81111561094b5761094a611661565b5b60405190808252806020026020018201604052801561098457816020015b6109716110eb565b8152602001906001900390816109695790505b5090506000600190505b6000548111610c5d5760016000828152602001908152602001600020604051806101400160405290816000820160009054906101000a900473ffffffffffffffffffffffffffffffffffffffff1673ffffffffffffffffffffffffffffffffffffffff1673ffffffffffffffffffffffffffffffffffffffff16815260200160018201548152602001600282018054610a269061188a565b80601f0160208091040260200160405190810160405280929190818152602001828054610a529061188a565b8015610a9f5780601f10610a7457610100808354040283529160200191610a9f565b820191906000526020600020905b815481529060010190602001808311610a8257829003601f168201915b50505050508152602001600382018054610ab89061188a565b80601f0160208091040260200160405190810160405280929190818152602001828054610ae49061188a565b8015610b315780601f10610b0657610100808354040283529160200191610b31565b820191906000526020600020905b815481529060010190602001808311610b1457829003601f168201915b50505050508152602001600482018054610b4a9061188a565b80601f0160208091040260200160405190810160405280929190818152602001828054610b769061188a565b8015610bc35780601f10610b9857610100808354040283529160200191610bc3565b820191906000526020600020905b815481529060010190602001808311610ba657829003601f168201915b505050505081526020016005820154815260200160068201548152602001600782015481526020016008820160009054906101000a900460ff161515151581526020016008820160019054906101000a900460ff16151515158152505082600183610c2e9190611bbe565b81518110610c3f57610c3e611bf2565b5b60200260200101819052508080610c5590611c21565b91505061098e565b508091505090565b60008211610ca8576040517f08c379a0000000000000000000000000000000000000000000000000000000008152600401610c9f90611cb5565b60405180910390fd5b60008111610ceb576040517f08c379a0000000000000000000000000000000000000000000000000000000008152600401610ce290611d21565b60405180910390fd5b600080815480929190610cfd90611c21565b91905055506040518061014001604052803373ffffffffffffffffffffffffffffffffffffffff16815260200160005481526020018681526020018581526020018481526020018381526020018281526020016000815260200160001515815260200160001515815250600160008054815260200190815260200160002060008201518160000160006101000a81548173ffffffffffffffffffffffffffffffffffffffff021916908373ffffffffffffffffffffffffffffffffffffffff160217905550602082015181600101556040820151816002019081610de19190611eed565b506060820151816003019081610df79190611eed565b506080820151816004019081610e0d9190611eed565b5060a0820151816005015560c0820151816006015560e082015181600701556101008201518160080160006101000a81548160ff0219169083151502179055506101208201518160080160016101000a81548160ff0219169083151502179055509050503373ffffffffffffffffffffffffffffffffffffffff166000547f2cb04f56996beb67c0ab27012deb0e8e96941f5daf9c0e52abab9055849c1af5878787878742610ebc9190611fbf565b604051610ecd959493929190611ff3565b60405180910390a35050505050565b8060016000828152602001908152602001600020600601544210610f35576040517f08c379a0000000000000000000000000000000000000000000000000000000008152600401610f2c906120a7565b60405180910390fd5b60003411610f78576040517f08c379a0000000000000000000000000000000000000000000000000000000008152600401610f6f90612139565b60405180910390fd5b600060016000848152602001908152602001600020905034816007016000828254610fa39190611fbf565b92505081905550346002600085815260200190815260200160002060003373ffffffffffffffffffffffffffffffffffffffff1673ffffffffffffffffffffffffffffffffffffffff168152602001908152602001600020600082825461100a9190611fbf565b925050819055503373ffffffffffffffffffffffffffffffffffffffff16837f38c48552690c96ec2872092ac1db6c19fb59f5a8c5b49bbf41ed4886d0ca69263460405161105891906113f9565b60405180910390a3806005015481600701541015801561108757508060080160009054906101000a900460ff16155b156110e65760018160080160006101000a81548160ff021916908315150217905550827f85b3ed4e45559c5f41fb220aa4ac86a440dfc741f219089de694242940aaa09c82600701546040516110dd91906113f9565b60405180910390a25b505050565b604051806101400160405280600073ffffffffffffffffffffffffffffffffffffffff168152602001600081526020016060815260200160608152602001606081526020016000815260200160008152602001600081526020016000151581526020016000151581525090565b6000604051905090565b600080fd5b600080fd5b6000819050919050565b61117f8161116c565b811461118a57600080fd5b50565b60008135905061119c81611176565b92915050565b6000602082840312156111b8576111b7611162565b5b60006111c68482850161118d565b91505092915050565b600073ffffffffffffffffffffffffffffffffffffffff82169050919050565b60006111fa826111cf565b9050919050565b61120a816111ef565b82525050565b6112198161116c565b82525050565b600081519050919050565b600082825260208201905092915050565b60005b8381101561125957808201518184015260208101905061123e565b60008484015250505050565b6000601f19601f8301169050919050565b60006112818261121f565b61128b818561122a565b935061129b81856020860161123b565b6112a481611265565b840191505092915050565b60008115159050919050565b6112c4816112af565b82525050565b6000610140820190506112e0600083018d611201565b6112ed602083018c611210565b81810360408301526112ff818b611276565b90508181036060830152611313818a611276565b905081810360808301526113278189611276565b905061133660a0830188611210565b61134360c0830187611210565b61135060e0830186611210565b61135e6101008301856112bb565b61136c6101208301846112bb565b9b9a5050505050505050505050565b6000611386826111cf565b9050919050565b6113968161137b565b81146113a157600080fd5b50565b6000813590506113b38161138d565b92915050565b600080604083850312156113d0576113cf611162565b5b60006113de8582860161118d565b92505060206113ef858286016113a4565b9150509250929050565b600060208201905061140e6000830184611210565b92915050565b600081519050919050565b600082825260208201905092915050565b6000819050602082019050919050565b611449816111ef565b82525050565b6114588161116c565b82525050565b600082825260208201905092915050565b600061147a8261121f565b611484818561145e565b935061149481856020860161123b565b61149d81611265565b840191505092915050565b6114b1816112af565b82525050565b6000610140830160008301516114d06000860182611440565b5060208301516114e3602086018261144f565b50604083015184820360408601526114fb828261146f565b91505060608301518482036060860152611515828261146f565b9150506080830151848203608086015261152f828261146f565b91505060a083015161154460a086018261144f565b5060c083015161155760c086018261144f565b5060e083015161156a60e086018261144f565b5061010083015161157f6101008601826114a8565b506101208301516115946101208601826114a8565b508091505092915050565b60006115ab83836114b7565b905092915050565b6000602082019050919050565b60006115cb82611414565b6115d5818561141f565b9350836020820285016115e785611430565b8060005b858110156116235784840389528151611604858261159f565b945061160f836115b3565b925060208a019950506001810190506115eb565b50829750879550505050505092915050565b6000602082019050818103600083015261164f81846115c0565b905092915050565b600080fd5b600080fd5b7f4e487b7100000000000000000000000000000000000000000000000000000000600052604160045260246000fd5b61169982611265565b810181811067ffffffffffffffff821117156116b8576116b7611661565b5b80604052505050565b60006116cb611158565b90506116d78282611690565b919050565b600067ffffffffffffffff8211156116f7576116f6611661565b5b61170082611265565b9050602081019050919050565b82818337600083830152505050565b600061172f61172a846116dc565b6116c1565b90508281526020810184848401111561174b5761174a61165c565b5b61175684828561170d565b509392505050565b600082601f83011261177357611772611657565b5b813561178384826020860161171c565b91505092915050565b600080600080600060a086880312156117a8576117a7611162565b5b600086013567ffffffffffffffff8111156117c6576117c5611167565b5b6117d28882890161175e565b955050602086013567ffffffffffffffff8111156117f3576117f2611167565b5b6117ff8882890161175e565b945050604086013567ffffffffffffffff8111156118205761181f611167565b5b61182c8882890161175e565b935050606061183d8882890161118d565b925050608061184e8882890161118d565b9150509295509295909350565b7f4e487b7100000000000000000000000000000000000000000000000000000000600052602260045260246000fd5b600060028204905060018216806118a257607f821691505b6020821081036118b5576118b461185b565b5b50919050565b7f4f6e6c79207468652063616d706169676e2063726561746f722063616e20706560008201527f72666f726d207468697320616374696f6e000000000000000000000000000000602082015250565b600061191760318361122a565b9150611922826118bb565b604082019050919050565b600060208201905081810360008301526119468161190a565b9050919050565b7f43616d706169676e206973207374696c6c206163746976650000000000000000600082015250565b600061198360188361122a565b915061198e8261194d565b602082019050919050565b600060208201905081810360008301526119b281611976565b9050919050565b7f43616d706169676e20676f616c206e6f74207265616368656400000000000000600082015250565b60006119ef60198361122a565b91506119fa826119b9565b602082019050919050565b60006020820190508181036000830152611a1e816119e2565b9050919050565b7f46756e647320616c72656164792077697468647261776e000000000000000000600082015250565b6000611a5b60178361122a565b9150611a6682611a25565b602082019050919050565b60006020820190508181036000830152611a8a81611a4e565b9050919050565b7f43616d706169676e20676f616c20726561636865642c206e6f20726566756e6460008201527f7300000000000000000000000000000000000000000000000000000000000000602082015250565b6000611aed60218361122a565b9150611af882611a91565b604082019050919050565b60006020820190508181036000830152611b1c81611ae0565b9050919050565b7f4e6f20636f6e747269627574696f6e7320746f20726566756e64000000000000600082015250565b6000611b59601a8361122a565b9150611b6482611b23565b602082019050919050565b60006020820190508181036000830152611b8881611b4c565b9050919050565b7f4e487b7100000000000000000000000000000000000000000000000000000000600052601160045260246000fd5b6000611bc98261116c565b9150611bd48361116c565b9250828203905081811115611bec57611beb611b8f565b5b92915050565b7f4e487b7100000000000000000000000000000000000000000000000000000000600052603260045260246000fd5b6000611c2c8261116c565b91507fffffffffffffffffffffffffffffffffffffffffffffffffffffffffffffffff8203611c5e57611c5d611b8f565b5b600182019050919050565b7f476f616c206d7573742062652067726561746572207468616e20300000000000600082015250565b6000611c9f601b8361122a565b9150611caa82611c69565b602082019050919050565b60006020820190508181036000830152611cce81611c92565b9050919050565b7f4475726174696f6e206d7573742062652067726561746572207468616e203000600082015250565b6000611d0b601f8361122a565b9150611d1682611cd5565b602082019050919050565b60006020820190508181036000830152611d3a81611cfe565b9050919050565b60008190508160005260206000209050919050565b60006020601f8301049050919050565b600082821b905092915050565b600060088302611da37fffffffffffffffffffffffffffffffffffffffffffffffffffffffffffffffff82611d66565b611dad8683611d66565b95508019841693508086168417925050509392505050565b6000819050919050565b6000611dea611de5611de08461116c565b611dc5565b61116c565b9050919050565b6000819050919050565b611e0483611dcf565b611e18611e1082611df1565b848454611d73565b825550505050565b600090565b611e2d611e20565b611e38818484611dfb565b505050565b5b81811015611e5c57611e51600082611e25565b600181019050611e3e565b5050565b601f821115611ea157611e7281611d41565b611e7b84611d56565b81016020851015611e8a578190505b611e9e611e9685611d56565b830182611e3d565b50505b505050565b600082821c905092915050565b6000611ec460001984600802611ea6565b1980831691505092915050565b6000611edd8383611eb3565b9150826002028217905092915050565b611ef68261121f565b67ffffffffffffffff811115611f0f57611f0e611661565b5b611f19825461188a565b611f24828285611e60565b600060209050601f831160018114611f575760008415611f45578287015190505b611f4f8582611ed1565b865550611fb7565b601f198416611f6586611d41565b60005b82811015611f8d57848901518255600182019150602085019450602081019050611f68565b86831015611faa5784890151611fa6601f891682611eb3565b8355505b6001600288020188555050505b505050505050565b6000611fca8261116c565b9150611fd58361116c565b9250828201905080821115611fed57611fec611b8f565b5b92915050565b600060a082019050818103600083015261200d8188611276565b905081810360208301526120218187611276565b905081810360408301526120358186611276565b90506120446060830185611210565b6120516080830184611210565b9695505050505050565b7f43616d706169676e206973206e6f206c6f6e6765722061637469766500000000600082015250565b6000612091601c8361122a565b915061209c8261205b565b602082019050919050565b600060208201905081810360008301526120c081612084565b9050919050565b7f436f6e747269627574696f6e206d75737420626520677265617465722074686160008201527f6e20300000000000000000000000000000000000000000000000000000000000602082015250565b600061212360238361122a565b915061212e826120c7565b604082019050919050565b6000602082019050818103600083015261215281612116565b905091905056fea2646970667358221220d2d56f58b08014d6def1fa00221d98d67587b666b3a1cb76d040a0b26a94e33464736f6c63430008180033",
  "linkReferences": {},
  "deployedLinkReferences": {}
}